:020000040000fa
:080000000002040000000000f2
:020000040000fa
:040008001a040000d6
:020000040000fa
:04000c00cc02000022
:020000040000fa
:040010000e030000db
:020000040000fa
:04001400ec020000fa
:020000040000fa
:040018002e030000b3
:020000040000fa
:04001c001a040000c2
:020000040000fa
:040020001a040000be
:020000040000fa
:040024001a040000ba
:020000040000fa
:040028001a040000b6
:020000040000fa
:04002c001a040000b2
:020000040000fa
:040030001a040000ae
:020000040000fa
:040034004e03000077
:020000040000fa
:040038001a040000a6
:020000040000fa
:04003c001a040000a2
:020000040000fa
:040040001a0400009e
:020000040000fa
:040044001a0400009a
:020000040000fa
:040048001a04000096
:020000040000fa
:04004c001a04000092
:020000040000fa
:040050001a0400008e
:020000040000fa
:040054001a0400008a
:020000040000fa
:040058001a04000086
:020000040000fa
:04005c001a04000082
:020000040000fa
:040060001a0400007e
:020000040000fa
:040064001a0400007a
:020000040000fa
:040068001a04000076
:020000040000fa
:04006c001a04000072
:020000040000fa
:040070001a0400006e
:020000040000fa
:040074001a0400006a
:020000040000fa
:040078001a04000066
:020000040000fa
:04007c001a04000062
:020000040000fa
:040080001a0400005e
:020000040000fa
:040084001a0400005a
:020000040000fa
:040088001a04000056
:020000040000fa
:04008c001a04000052
:020000040000fa
:040090001a0400004e
:020000040000fa
:040094001a0400004a
:020000040000fa
:040098001a04000046
:020000040000fa
:04009c001a04000042
:020000040000fa
:0400a0001a0400003e
:020000040000fa
:0400a4001a0400003a
:020000040000fa
:0400a8001a04000036
:020000040000fa
:0400ac001a04000032
:020000040000fa
:0400b0001a0400002e
:020000040000fa
:0400b4001a0400002a
:020000040000fa
:0400b8001a04000026
:020000040000fa
:0400bc001a04000022
:020000040000fa
:0400c0001a0400001e
:020000040000fa
:0400c4001a0400001a
:020000040000fa
:0400c8001a04000016
:020000040000fa
:0400cc001a04000012
:020000040000fa
:0400d0001a0400000e
:020000040000fa
:0400d4001a0400000a
:020000040000fa
:0400d8001a04000006
:020000040000fa
:0400dc001a04000002
:020000040000fa
:0400e0001a040000fe
:020000040000fa
:0400e4001a040000fa
:020000040000fa
:0400e8001a040000f6
:020000040000fa
:0400ec001a040000f2
:020000040000fa
:0400f0001a040000ee
:020000040000fa
:0400f4001a040000ea
:020000040000fa
:0400f8001a040000e6
:020000040000fa
:0400fc001a040000e2
:020000040000fa
:040100001a040000dd
:020000040000fa
:040104001a040000d9
:020000040000fa
:040108001a040000d5
:020000040000fa
:04010c001a040000d1
:020000040000fa
:040110001a040000cd
:020000040000fa
:040114001a040000c9
:020000040000fa
:040118001a040000c5
:020000040000fa
:04011c001a040000c1
:020000040000fa
:040120001a040000bd
:020000040000fa
:040124001a040000b9
:020000040000fa
:040128001a040000b5
:020000040000fa
:04012c001a040000b1
:020000040000fa
:040130001a040000ad
:020000040000fa
:040134001a040000a9
:020000040000fa
:040138001a040000a5
:020000040000fa
:04013c001a040000a1
:020000040000fa
:040140001a0400009d
:020000040000fa
:040144001a04000099
:020000040000fa
:040148001a04000095
:020000040000fa
:040208001a040000d4
:020000040000fa
:04020c00cc02000020
:020000040000fa
:040210000e030000d9
:020000040000fa
:04021400ec020000f8
:020000040000fa
:040218002e030000b1
:020000040000fa
:04021c001a040000c0
:020000040000fa
:040220001a040000bc
:020000040000fa
:040224001a040000b8
:020000040000fa
:040228001a040000b4
:020000040000fa
:04022c001a040000b0
:020000040000fa
:040230001a040000ac
:020000040000fa
:040234004e03000075
:020000040000fa
:040238001a040000a4
:020000040000fa
:04023c001a040000a0
:020000040000fa
:040240001a0400009c
:020000040000fa
:040244001a04000098
:020000040000fa
:040248001a04000094
:020000040000fa
:04024c001a04000090
:020000040000fa
:040250001a0400008c
:020000040000fa
:040254001a04000088
:020000040000fa
:040258001a04000084
:020000040000fa
:04025c001a04000080
:020000040000fa
:040260001a0400007c
:020000040000fa
:040264001a04000078
:020000040000fa
:040268001a04000074
:020000040000fa
:04026c001a04000070
:020000040000fa
:040270001a0400006c
:020000040000fa
:040274001a04000068
:020000040000fa
:040278001a04000064
:020000040000fa
:04027c001a04000060
:020000040000fa
:040280001a0400005c
:020000040000fa
:040284001a04000058
:020000040000fa
:040288001a04000054
:020000040000fa
:04028c001a04000050
:020000040000fa
:040290001a0400004c
:020000040000fa
:040294001a04000048
:020000040000fa
:040298001a04000044
:020000040000fa
:04029c001a04000040
:020000040000fa
:0402a0001a0400003c
:020000040000fa
:0402a4001a04000038
:020000040000fa
:0402a8001a04000034
:020000040000fa
:0402ac001a04000030
:020000040000fa
:0402b0001a0400002c
:020000040000fa
:0402b4001a04000028
:020000040000fa
:0402b8001a04000024
:020000040000fa
:0402bc001a04000020
:020000040000fa
:0402c0001a0400001c
:020000040000fa
:0402c4001a04000018
:020000040000fa
:0402c8001a04000014
:020000040000fa
:0402cc001a04000010
:020000040000fa
:0402d0001a0400000c
:020000040000fa
:0402d4001a04000008
:020000040000fa
:0402d8001a04000004
:020000040000fa
:0402dc001a04000000
:020000040000fa
:0402e0001a040000fc
:020000040000fa
:0402e4001a040000f8
:020000040000fa
:0402e8001a040000f4
:020000040000fa
:0402ec001a040000f0
:020000040000fa
:0402f0001a040000ec
:020000040000fa
:0402f4001a040000e8
:020000040000fa
:0402f8001a040000e4
:020000040000fa
:0402fc001a040000e0
:020000040000fa
:040300001a040000db
:020000040000fa
:040304001a040000d7
:020000040000fa
:040308001a040000d3
:020000040000fa
:04030c001a040000cf
:020000040000fa
:040310001a040000cb
:020000040000fa
:040314001a040000c7
:020000040000fa
:040318001a040000c3
:020000040000fa
:04031c001a040000bf
:020000040000fa
:040320001a040000bb
:020000040000fa
:040324001a040000b7
:020000040000fa
:040328001a040000b3
:020000040000fa
:04032c001a040000af
:020000040000fa
:040330001a040000ab
:020000040000fa
:040334001a040000a7
:020000040000fa
:040338001a040000a3
:020000040000fa
:04033c001a0400009f
:020000040000fa
:040340001a0400009b
:020000040000fa
:040344001a04000097
:020000040000fa
:040348001a04000093
:020000040000fa
:10040000cfb520000e7f22000e0188000000000002
:10041000000020000000e000020032000001200087
:100420002002880014000700180107000000e00007
:1004300003003a0060d420000100200002003700d1
:100440000000200001002000810f70000100320038
:1004500014000700000020000000e000020032004d
:100460000000020000000000fe0c0200000000007e
:100470000040da000000fe004440a9000000200017
:100480000000e0000300320000002000a00188000e
:100490004440a800000006008a1f78008b1f7800e7
:1004a0000000060091018800800478000000eb0045
:1004b0001a003700e284440032a0b4009905ba0063
:1004c000e284440032a0b4009906ba00e2844400f9
:1004d00032a0b4000006eb00476fde00fd07b2005b
:1004e000636ce10003003a00ebff07000000eb0043
:1004f0000a003700606ce10004003a00005deb0088
:100500008b05e900fdff3e00040037006168e10053
:10051000010032000086eb000b00070019c7ba008b
:100520001905ba000e04e00003003a000a00e000da
:10053000e0ff3a0000000600fe07b2009e018800be
:100540008a047800f5ff3700395dba008b05e900b1
:100550000c003200295dba008b05e900080032006a
:100560000c00e00003003a00e284440032a0b40032
:10057000f5ff370019ddba008b05e900faff3a00f4
:100580008904e800e184440032a0b40000000600c1
:1005900000000000000000003600f800809fbe0050
:1005a000829fbe00849fbe00869fbe000000fa00ae
:1005b0008020a9000000eb006f0507000080fa0012
:1005c0004f03be004f02be004f01be004f00be00f1
:1005d0003600f900004006003600f800809fbe009b
:1005e000829fbe00849fbe00869fbe000000fa006e
:1005f000660507008040a900100020005e05070086
:100600000080fa004f03be004f02be004f01be0043
:100610004f00be003600f900004006003600f8002a
:10062000809fbe00829fbe00849fbe00869fbe004a
:100630000000fa008060a900200020004e0507009d
:100640000080fa004f03be004f02be004f01be0003
:100650004f00be003600f900004006003600f800ea
:10066000809fbe00829fbe00849fbe00869fbe000a
:100670000000fa008080a900300020003e0507003d
:100680000080fa004f03be004f02be004f01be00c3
:100690004f00be003600f900004006003600f800aa
:1006a000809fbe00829fbe00849fbe00869fbe00ca
:1006b0000000fa00004080000000e00025003a0041
:1006c00010408000c200dd008081200000804000da
:1006d0001000be002040880031408800104080009b
:1006e0000000e800104088006000b800404088002a
:1006f00051408800204080003140800002002800e6
:10070000934024001b010700a300070000007800ad
:10071000000c88004040800051408000020028000a
:1007200093402400130107009b000700000078009d
:10073000300c880011408000a0408000808f500065
:1007400027003a000228ef00100020000040880037
:100750002300370010408000c200dd0080812000af
:10076000008040001000be004040880051408800da
:10077000104080000000e800104088006000b800d1
:1007800020408800314088002040800031408000b7
:100790000200280093402400f60007007e000700b6
:1007a00000007800000c880040408000514080002c
:1007b0000200280093402400ee00070076000700a6
:1007c00000007800300c880011408000a0408000bc
:1007d000808f500002003a000228ef000028ef004e
:1007e000904080000000e000020032009040800055
:1007f00000000100b0b52000104078008040e80003
:10080000b0b5200001487800a0b5200011c0b300a9
:10081000014878008460a9000080fa004f03be0000
:100820004f02be004f01be004f00be003600f9006f
:10083000004006000040da000000fe000800fa0058
:10084000100798002107980032079800be0090001a
:10085000010f7800070037002e009000104078004c
:10086000ae0090008100e800210798008402070094
:100870001e0fe9001e0078000000e000f6ff3a00bd
:100880003e0090000080fa00000006000000050015
:10089000889fbe008a9fbe008c1f78009d000700c5
:1008a000a400330003866c006450e1002e00320087
:1008b0006420e100330032006150e1002f0032007b
:1008c0006120e1003100320085855500eb07b00062
:1008d0000900200008042000050037000804440037
:1008e00089844c000a0031000603430087834b00d3
:1008f0000001530081815b00f8ff33000203be005a
:100900000800a0000804440089844c00f6ff390068
:10091000c639dd008301730001003200130020009e
:100920008904d1000884d3000998a300050032008f
:100930000800a7000300a0008904d1000884d300a8
:100940008b05e8008904d1000884d3000001eb0086
:100950000281d2003400070001f0a1000cf0a700d2
:1009600001f0a0007c0037006420e1007e0032002e
:100970000801be000200be00f7ff37006120e10061
:10098000790032006000b800f3ff3700000020005b
:1009900001f82700f0ff37000001be004800070003
:1009a0000470a70003f0a1006509b1001600320031
:1009b0000d0035006828e10006003500f0ff2f002b
:1009c000f1ff27000300e00013003b0001002800b6
:1009d0000000050000004000818048008502e90019
:1009e000fcff3a0008003700f88f420002003c008c
:1009f0008000eb00000005008100d1000080d300e2
:100a00008502e800fcff3a000300e00002003b0022
:100a100060001000e0801800000006004f89de0032
:100a20008201780089003700810020006180550034
:100a30000b003d000b00200061fe2f000100e100d3
:100a40001d00340082817100610164008904d100bd
:100a50000884d3000000e800faff3a00710020008b
:100a600061006400030070000200600009003200b1
:100a700061044400e0844c000988a50005003200b0
:100a80008b05e8006808e10002003a008904d10003
:100a90000884d300f20f20000258e10005003d0059
:100aa000c75ddd00f907b200898075000800780095
:100ab000000006000bf827008b00780000000500fe
:100ac000c70ade00f107b200f50fb20008003200dd
:100ad000e1cf4200020032000170a00024000500b6
:100ae000810f700001003200040805004400050079
:100af000810f700002003a00140005008502e90031
:100b00000000400081c04800fcff3b000170a000d5
:100b1000240005000004be00e9ff07000003be003a
:100b20000405be000200be00e5ff0700844f75000b
:100b3000000006000200be006450e100050036001f
:100b40006420e100020036000968a30001003a00b9
:100b50000800be000160a0004f0678004f05be00ef
:100b60004f04be0000000600f0ff2f00f1ff270039
:100b7000f9ff3700889fbe008a9fbe008c1f780057
:100b8000e4ff0700ebff330003866c006450e100d4
:100b9000240032006420e100270032006150e100af
:100ba000220032006120e100210032008b854200ea
:100bb000eb07b1000134b800003ab8000804420065
:100bc00089844a00013ab8000030b80088804000ab
:100bd00009014a0004003300000040008180480001
:100be000020149008b05e900c909dd00830170009d
:100bf0000100320013002000c814de004814dd009c
:100c00004709de001200b200c808de000884700048
:100c100085ff070001f0a1000cf0a70001f0a00083
:100c2000cdff37006120e100cfff32000801be0098
:100c30000200be00f7ff37006150e100fcff3a0000
:100c4000c9ff37000001eb003f003700881f780024
:100c5000030478000300e00007003d00600010007e
:100c6000e080180060011900e081190002003b00db
:100c700001f02d00030037000400070008f0a70072
:100c800001f0a0004f04780000000600889fbe001d
:100c90008a9fbe000082700004027100048271000d
:100ca000260032000004be000200be006011b80041
:100cb0006b092000950220000182cf000a00390054
:100cc0000541b1000082cf00070039000541b100a5
:100cd0000982cf00040039000541b1000882cf002d
:100ce000010039000541b1000542520012003200f6
:100cf0000a003b0082817100610164008100d10023
:100d00000080d3008984d3000884d3008b05e800d9
:100d10000442e800f7ff3a000700370008044400e7
:100d200089844c0000004800818048008b05e90060
:100d30000442e900f9ff3a003bff07004f05be00ff
:100d40004f04be0000000600889fbe008a9fbe00c0
:100d50008c9fbe00820578000004be0058ff07008b
:100d60000800be006420e1000700390002003a00dc
:100d7000f1ff2700f0ff2f000160a0001202200009
:100d8000b2408800550037006120e10003003a00be
:100d90000b00a70001f823005000370001f0a1006c
:100da0000200210093642400ae0007000800be008a
:100db00004003500b2fd2000930c2400ab000700b6
:100dc0000004be000005eb000b00a6004f0dde0086
:100dd00001f0a1000004be0032982f0023ea230096
:100de00064ff07000001eb0003f023000b00a700e5
:100df00003f823003e000700e7fe07000000a700fd
:100e00000a00a20005ff07000b00e000030032000b
:100e10000200200003f023003400070001f0a200cc
:100e20000006be00020020009304240051ff0700ca
:100e30000801be002e000700809fbe000c00be000f
:100e400022a22a00d3a723004aff07004f01be00b9
:100e5000270007000004be0001f0a10002002000ee
:100e6000039823007f0007000800be00190035002a
:100e70000001be003fff07000006be00b2c529000a
:100e8000e36223003bff070022222b00f3942b0098
:100e9000170007000c01be0036ff0700e2732800b0
:100ea00083c02300120007000c01be0031ff0700c1
:100eb00042aa2a00a3e22b000d0007000c01be008d
:100ec0002cff07000801be002aff07000801be0032
:100ed000070007000a00a70001f0a2004f06be00ad
:100ee0004f05be004f04be000000060003f0a20044
:100ef000889fbe008a9fbe008c1f780005ff0700f8
:100f00000cff33006450e1004f0032006420e10028
:100f10005200320003826c0007003b000905d0003c
:100f20000306d000820f54000c065d000200390059
:100f3000020032008901780003067800858255009e
:100f400004003d000003fd008103fd008502ea006e
:100f50008b854200840f720002003b00600010008d
:100f6000e08018006011b8000005eb007a28e1006d
:100f70000a00390006007800c75ddd00f707b200ff
:100f8000878075002d003700828171000a0178008a
:100f9000610560008180d1000080d3008502e900f6
:100fa000f9ff3b00060440008784480002003b0034
:100fb00060041400e0841c000988a30007003200cc
:100fc0008a81710082817100610164008904d1000d
:100fd0000884d3008b05e800170037000978a300c8
:100fe00013003a000b00e000130034008b05e90009
:100ff0000804440089844c000a4474000978a30062
:101000000d003a000b00e000070034008b05e900fa
:101010000804440089844c0001003a000b002000c1
:101020000978a300f7ff32000001eb00020037004f
:10103000828171000a0178007bfe07000cf0a70096
:1010400001f0a000c4fe37006420e10002003a0075
:10105000838f6c00c4fe33000801be000200be0096
:10106000bdfe3700140020005100370004002000ae
:1010700000003700889fbe008a9fbe008c1f78004a
:101080004f26dd00a3fe0700aafe33006120e10029
:10109000430032006250e10041003e003e00390052
:1010a0006420e1003c003200058255000f003b0047
:1010b0000402e80038003a00800f5300818f5b0083
:1010c000350034000800be0003f0a10001f0a600c6
:1010d00003f0a0000cf0a70085ff07009efe37007c
:1010e0000603430087834b000c464600000553006f
:1010f00081855b00020033000a03be000c00a000e3
:101100000402e900f6ff3b00850578000602430073
:1011100087824b0004003a006000b80009f0a70085
:1011200001f0a0008cfe37000002520081825a00bc
:101130000704e000040033000603430087834b00ec
:101140008b05e900faff3700090578000604be00a8
:101150000203be006011b80033fe0700e00f52002a
:10116000e08f5a000700350002003c000c08a30085
:10117000040032000601be0003f0a0000cf0a7003e
:101180005bff07000a85680001f0a1000af0a700d4
:1011900001f0a00070fe37000800be006efe3700b0
:1011a000100220000cf0a600b04088006efe370050
:1011b000889fbe008a9fbe00841f780055fe0700ee
:1011c0004f00780011003300f0ff2f00838f6c0078
:1011d00006003b00040565000a00a7000800370070
:1011e00009f0a6001000200008003700820f54000c
:1011f000838f5c00030039001000200001003e00d6
:101200000000200009f0a7000000ea004f05be0022
:0c1210004f04be000000e00000000600db
:020000040000fa
:10121c000000fa0080002000001188002222ef005c
:10122c00700020004011880021e2a8002342a80091
:10123c000080fa00000006000000fa000000000028
:10124c0010118000610060000000e000fcff320023
:10125c0010118000620060000000e000010032000c
:10126c002222a90030118000004078000080fa0092
:10127c00000006000200fa00004f78000000000099
:10128c001111800000202000008060000000e000b0
:10129c00fbff3a001e80fb00201188000080fa0042
:1012ac00000006000000fa001011800000407800d9
:1012bc00614060000080fb0000f0a7000000ea0025
:1012cc000000ea004f00de00004078000080fa00c9
:1012dc00000006000000fa00111180000010200030
:1012ec00008060000000e000070032001111800057
:1012fc0000402000008060000000e000020032008e
:10130c0010002000010037000000eb0000407800c6
:10131c000080fa00000006000000fa0010118000a6
:10132c004800de00614060000080fb0000f0a70078
:10133c000000ea000000ea004f00de0000407800e8
:10134c000080fa00000006000000fa001011800076
:10135c000080fa00000006000000fa00d1ff070030
:10136c000080fa00000006000000fa00d9ff070018
:10137c000080fa00000006000000fa00c9ff070018
:10138c000080fa00000006000000fa00e2ff0700ef
:10139c000080fa00000006000000fa000021ef00b7
:1013ac00f031200010088800000028002008880078
:1013bc00904080000000e00002003a00a0a2200053
:1013cc00240007008460a9009460a900a0b5200047
:1013dc008040eb00014878000080fa000000060015
:1013ec000200fa00000f78009e00780011088800b7
:1013fc00a0b520008040eb00014878000080fa0086
:10140c00000006000000fa00100880000080fa00be
:10141c00000006000200fa00000f78009e00780021
:10142c0001088800a0b520008040eb00014878003e
:10143c000080fa00000006000000fa00000880009e
:10144c000080fa00000006000000fa000080fa009c
:10145c00000006000200fa00000f78009460a9005a
:10146c009e007800914088009460a8000080fa00eb
:10147c00000006000000fa00a0b520008040eb0040
:10148c00014878009460a80005e1a8000080fa00eb
:10149c00000006000000fa0005e1a9009460a90014
:1014ac000080fa00000006000200fa00a0b520003f
:1014bc00104f78001e4078000004e000030032005a
:1014cc00a0b520008040eb00014878001e40780059
:1014dc000080fa00000006000000fa00b0b5200001
:1014ec00104078000080fb000080fa00000006002d
:1014fc000000fa00b0b520008040eb0001487800f5
:10150c000080fa00000006000000fa000621ef003f
:10151c00f031200060088800000028008008880056
:10152c0080b520008040eb00014878000080fa0074
:10153c00000006000000fa002104800000082000d2
:10154c00008060000000e0000900320090b520002f
:10155c00104078008040e80090b5200001487800e9
:10156c0080b5200011c0b3000148780084e0a900c8
:10157c000080fa00000006000200fa00000f78005c
:10158c009e0078006108880080b520008040eb0048
:10159c00014878000080fa00000006000000fa0004
:1015ac00600880000080fa00000006000200fa00cb
:1015bc00000f78009e0078003108880080b520006c
:1015cc008040eb00014878000080fa000000060023
:1015dc000000fa00300880000080fa0000000600cd
:1015ec000000fa0080b520008040eb000148780034
:1015fc0011e1a8000080fa00000006000000fa00cb
:10160c0011e1a9000080fa00000006000200fa00b7
:10161c0080b52000104f78001e4078000004e000d8
:10162c000300320080b520008040eb0001487800b8
:10163c001e4078000080fa00000006000000fa004e
:10164c0090b52000104078000080fb000080fa006c
:10165c00000006000000fa0090b520008040eb006e
:10166c00014878000080fa00000006000000fa0033
:10167c008621ef008821ef0060002000500c8800cc
:10168c00500c800000407800674060000080fb0038
:10169c00704088000080fa00000006000000fa008c
:1016ac000080fa00000006000000fa00210480000f
:1016bc0000042000008060000000e0000200320006
:1016cc00f6ff070084c0a9000080fa0000000600a5
:1016dc000000fa0070408000004078006740600015
:1016ec000080fb0067006000520c800081ff2f001f
:1016fc008100610001007000500c88000080fa002d
:10170c00000006000000fa00510c800080ff2f0042
:10171c0000806000500c88000080fa000000060079
:10172c000200fa00000f78009e007800310c88004f
:10173c000080fa00000006000200fa00000f78009a
:10174c009e007800410c88000080fa000000060022
:10175c000000fa00200480004600de0061406000ba
:10176c000080fb0000f0a7000000ea000000ea0087
:10177c004f00de00004078000080fa0000000600f8
:10178c000400fa00100798001e0090000000e00012
:10179c000a003a00500c80004400de0061406000fa
:1017ac000080fb0000f0a7000000ea000000ea0047
:1017bc004f00de00004f78000100370000000000f1
:1017cc001e4078000080fa00000006000000fa00bd
:1017dc008021ef008221ef0060002000200c8800a7
:1017ec00200c800000407800674060000080fb0007
:1017fc00804088000080fa00000006000000fa001b
:10180c000080fa00000006000000fa0020048000ae
:10181c00640060000000e00002003200f7ff0700e7
:10182c008440a9000080fa00000006000000fa00c5
:10183c008040800000407800674060000080fb0022
:10184c0067006000220c800081ff2f008100610086
:10185c0001007000200c88000080fa0000000600d7
:10186c000000fa00210c800080ff2f000080600037
:10187c00200c88000080fa00000006000200fa002c
:10188c00000f78009e007800010c88000080fa00a0
:10189c00000006000200fa00000f78009e0078009d
:1018ac00110c88000080fa00000006000000fa000d
:1018bc00200480004200de00614060000080fb00dc
:1018cc0000f0a7000000ea000000ea004f00de0074
:1018dc00004078000080fa00000006000400fa00c6
:1018ec00100798001e0090000000e0000a003a006b
:1018fc00200c80004400de00614060000080fb0092
:10190c0000f0a7000000ea000000ea004f00de0033
:10191c00004f780001003700000000001e407800e6
:10192c000080fa00000006000000fa00c422ef005c
:10193c00cc22ef007001200000168800f03f270039
:10194c00401688006820ef006a20ef00c622ef00e6
:10195c00ce22ef000020200060198800113a800090
:10196c00f00b200000816000600420007105200055
:10197c0023742000804978008149780082497800de
:10198c0051368000f00f2e00808060000030210066
:10199c00010070005036880071368000f00f2e0068
:1019ac0080806000003020000100700070368800dc
:1019bc005136800000fe2f00008060002001b30033
:1019cc0050368800103a8000000178000260a000b8
:1019dc0060042000710520002374200080497800e9
:1019ec0081497800824978000080fa0000000600e6
:1019fc000000fa00889fbe008a1f7800670007006d
:101a0c000228ef00170037001a40800010408000b9
:101a1c000000e800cf80de00fdfb07000004be00e4
:101a2c00a0408000cf80de00f9fb07000001be0063
:101a3c000800be0093fb0700325c2f0083042400d7
:101a4c0049fc07007cfc0700c251dd0082812000ac
:101a5c00028141000089be00104080000000e800b7
:101a6c001040880011408000a0408000808f500002
:101a7c00e5ff35000228ef009460a800ffff370057
:020000040000fa
:101a8c00580b00000200000000000000380b0000a2
:101a9c0020000000000000000c0800000200000004
:101aac0002000000ffff00000e0800000200000012
:101abc000000000010080000020000000000000000
:101acc005a0b000002000000000000001208000089
:101adc0002000000000000001808000020030000b5
:101aec0000000000000800000c00000000000000d6
:101afc00140800000200000002000000c8000000f2
:101b0c0016080000020000000000000000000000a9
:020000040000fa
:101b1c000000fa0000002300203a88004827ef005c
:101b2c007027ef007227ef007427ef0012002000df
:101b3c0080072000a1092000337420008049780020
:101b4c0081497800824978000001eb006004200094
:101b5c0071052000237420008049780081497800a9
:101b6c00824978000080fa00000006000200fa00aa
:101b7c00000f78009e00780061408800ffff37005e
:101b8c000000fa0080b320008007780000b5200028
:101b9c00000188000080fa00000006000000fa0036
:101bac0061ff0700daff07000700070098fd070038
:101bbc0006ff0700adfe070053fe0700f6fd070009
:101bcc000080fa00000006000000fa0021058000e9
:101bdc00f0ff28000080600000c0a00020058800f5
:081bec000080fa000000060071
:020000040000fa
:020000040001f9
:0457f800bff90000f5
:020000040000fa
:020000040001f9
:0457fc007f3d0000ed
:00000001FF
